{
  "contracts/Notary.sol": {
    "Notary": {
      "abi": [
        {
          "constant": false,
          "inputs": [
            {
              "name": "hash",
              "type": "bytes32"
            }
          ],
          "name": "addDocHash",
          "outputs": [],
          "payable": false,
          "type": "function"
        },
        {
          "constant": true,
          "inputs": [
            {
              "name": "hash",
              "type": "bytes32"
            }
          ],
          "name": "findDocHash",
          "outputs": [
            {
              "name": "",
              "type": "uint256"
            },
            {
              "name": "",
              "type": "uint256"
            }
          ],
          "payable": false,
          "type": "function"
        }
      ],
      "devdoc": {
        "methods": {}
      },
      "evm": {
        "assembly": "    /* \"contracts/Notary.sol\":25:495  contract Notary {... */\n  mstore(0x40, 0x60)\n  jumpi(tag_1, iszero(callvalue))\n  invalid\ntag_1:\ntag_2:\n  dataSize(sub_0)\n  dup1\n  dataOffset(sub_0)\n  0x0\n  codecopy\n  0x0\n  return\nstop\n\nsub_0: assembly {\n        /* \"contracts/Notary.sol\":25:495  contract Notary {... */\n      mstore(0x40, 0x60)\n      calldataload(0x0)\n      0x100000000000000000000000000000000000000000000000000000000\n      swap1\n      div\n      0xffffffff\n      and\n      dup1\n      0x133a48f3\n      eq\n      tag_2\n      jumpi\n      dup1\n      0x4cf00d3f\n      eq\n      tag_3\n      jumpi\n    tag_1:\n      invalid\n        /* \"contracts/Notary.sol\":207:344  function addDocHash (bytes32 hash) public {... */\n    tag_2:\n      jumpi(tag_4, iszero(callvalue))\n      invalid\n    tag_4:\n      tag_5\n      0x4\n      dup1\n      dup1\n      calldataload\n      not(0x0)\n      and\n      swap1\n      0x20\n      add\n      swap1\n      swap2\n      swap1\n      pop\n      pop\n      jump(tag_6)\n    tag_5:\n      stop\n        /* \"contracts/Notary.sol\":345:490  function findDocHash (bytes32 hash) public constant returns(uint, uint) {... */\n    tag_3:\n      jumpi(tag_7, iszero(callvalue))\n      invalid\n    tag_7:\n      tag_8\n      0x4\n      dup1\n      dup1\n      calldataload\n      not(0x0)\n      and\n      swap1\n      0x20\n      add\n      swap1\n      swap2\n      swap1\n      pop\n      pop\n      jump(tag_9)\n    tag_8:\n      mload(0x40)\n      dup1\n      dup4\n      dup2\n      mstore\n      0x20\n      add\n      dup3\n      dup2\n      mstore\n      0x20\n      add\n      swap3\n      pop\n      pop\n      pop\n      mload(0x40)\n      dup1\n      swap2\n      sub\n      swap1\n      return\n        /* \"contracts/Notary.sol\":207:344  function addDocHash (bytes32 hash) public {... */\n    tag_6:\n        /* \"contracts/Notary.sol\":255:278  Record memory newRecord */\n      tag_10\n      jump\t// in(tag_11)\n    tag_10:\n        /* \"contracts/Notary.sol\":281:306  Record(now, block.number) */\n      0x40\n      mload(0x40)\n      swap1\n      dup2\n      add\n      0x40\n      mstore\n      dup1\n        /* \"contracts/Notary.sol\":288:291  now */\n      timestamp\n        /* \"contracts/Notary.sol\":281:306  Record(now, block.number) */\n      dup2\n      mstore\n      0x20\n      add\n        /* \"contracts/Notary.sol\":293:305  block.number */\n      number\n        /* \"contracts/Notary.sol\":281:306  Record(now, block.number) */\n      dup2\n      mstore\n      pop\n        /* \"contracts/Notary.sol\":255:306  Record memory newRecord = Record(now, block.number) */\n      swap1\n      pop\n        /* \"contracts/Notary.sol\":330:339  newRecord */\n      dup1\n        /* \"contracts/Notary.sol\":312:321  docHashes */\n      0x0\n        /* \"contracts/Notary.sol\":312:327  docHashes[hash] */\n      0x0\n        /* \"contracts/Notary.sol\":322:326  hash */\n      dup5\n        /* \"contracts/Notary.sol\":312:327  docHashes[hash] */\n      not(0x0)\n      and\n      not(0x0)\n      and\n      dup2\n      mstore\n      0x20\n      add\n      swap1\n      dup2\n      mstore\n      0x20\n      add\n      0x0\n      sha3\n        /* \"contracts/Notary.sol\":312:339  docHashes[hash] = newRecord */\n      0x0\n      dup3\n      add\n      mload\n      dup2\n      0x0\n      add\n      sstore\n      0x20\n      dup3\n      add\n      mload\n      dup2\n      0x1\n      add\n      sstore\n      swap1\n      pop\n      pop\n        /* \"contracts/Notary.sol\":207:344  function addDocHash (bytes32 hash) public {... */\n    tag_12:\n      pop\n      pop\n      jump\t// out\n        /* \"contracts/Notary.sol\":345:490  function findDocHash (bytes32 hash) public constant returns(uint, uint) {... */\n    tag_9:\n        /* \"contracts/Notary.sol\":405:409  uint */\n      0x0\n        /* \"contracts/Notary.sol\":411:415  uint */\n      0x0\n        /* \"contracts/Notary.sol\":431:440  docHashes */\n      0x0\n        /* \"contracts/Notary.sol\":431:446  docHashes[hash] */\n      0x0\n        /* \"contracts/Notary.sol\":441:445  hash */\n      dup5\n        /* \"contracts/Notary.sol\":431:446  docHashes[hash] */\n      not(0x0)\n      and\n      not(0x0)\n      and\n      dup2\n      mstore\n      0x20\n      add\n      swap1\n      dup2\n      mstore\n      0x20\n      add\n      0x0\n      sha3\n        /* \"contracts/Notary.sol\":431:455  docHashes[hash].mineTime */\n      0x0\n      add\n      sload\n        /* \"contracts/Notary.sol\":457:466  docHashes */\n      0x0\n        /* \"contracts/Notary.sol\":457:472  docHashes[hash] */\n      0x0\n        /* \"contracts/Notary.sol\":467:471  hash */\n      dup6\n        /* \"contracts/Notary.sol\":457:472  docHashes[hash] */\n      not(0x0)\n      and\n      not(0x0)\n      and\n      dup2\n      mstore\n      0x20\n      add\n      swap1\n      dup2\n      mstore\n      0x20\n      add\n      0x0\n      sha3\n        /* \"contracts/Notary.sol\":457:484  docHashes[hash].blockNumber */\n      0x1\n      add\n      sload\n        /* \"contracts/Notary.sol\":423:485  return (docHashes[hash].mineTime, docHashes[hash].blockNumber) */\n      swap2\n      pop\n      swap2\n      pop\n        /* \"contracts/Notary.sol\":345:490  function findDocHash (bytes32 hash) public constant returns(uint, uint) {... */\n    tag_13:\n      swap2\n      pop\n      swap2\n      jump\t// out\n        /* \"contracts/Notary.sol\":25:495  contract Notary {... */\n    tag_11:\n      0x40\n      mload(0x40)\n      swap1\n      dup2\n      add\n      0x40\n      mstore\n      dup1\n      0x0\n      dup2\n      mstore\n      0x20\n      add\n      0x0\n      dup2\n      mstore\n      pop\n      swap1\n      jump\t// out\n}\n",
        "bytecode": {
          "linkReferences": {},
          "object": "6060604052341561000c57fe5b5b6101948061001c6000396000f30060606040526000357c0100000000000000000000000000000000000000000000000000000000900463ffffffff168063133a48f3146100465780634cf00d3f1461006a575bfe5b341561004e57fe5b6100686004808035600019169060200190919050506100a9565b005b341561007257fe5b61008c600480803560001916906020019091905050610101565b604051808381526020018281526020019250505060405180910390f35b6100b161014d565b6040604051908101604052804281526020014381525090508060006000846000191660001916815260200190815260200160002060008201518160000155602082015181600101559050505b5050565b600060006000600084600019166000191681526020019081526020016000206000015460006000856000191660001916815260200190815260200160002060010154915091505b915091565b604060405190810160405280600081526020016000815250905600a165627a7a723058202e45706b29dd8d4f7e1eb31f5506968cfc2136494aa90c3695f8c0f2d2339b320029",
          "opcodes": "PUSH1 0x60 PUSH1 0x40 MSTORE CALLVALUE ISZERO PUSH2 0xC JUMPI INVALID JUMPDEST JUMPDEST PUSH2 0x194 DUP1 PUSH2 0x1C PUSH1 0x0 CODECOPY PUSH1 0x0 RETURN STOP PUSH1 0x60 PUSH1 0x40 MSTORE PUSH1 0x0 CALLDATALOAD PUSH29 0x100000000000000000000000000000000000000000000000000000000 SWAP1 DIV PUSH4 0xFFFFFFFF AND DUP1 PUSH4 0x133A48F3 EQ PUSH2 0x46 JUMPI DUP1 PUSH4 0x4CF00D3F EQ PUSH2 0x6A JUMPI JUMPDEST INVALID JUMPDEST CALLVALUE ISZERO PUSH2 0x4E JUMPI INVALID JUMPDEST PUSH2 0x68 PUSH1 0x4 DUP1 DUP1 CALLDATALOAD PUSH1 0x0 NOT AND SWAP1 PUSH1 0x20 ADD SWAP1 SWAP2 SWAP1 POP POP PUSH2 0xA9 JUMP JUMPDEST STOP JUMPDEST CALLVALUE ISZERO PUSH2 0x72 JUMPI INVALID JUMPDEST PUSH2 0x8C PUSH1 0x4 DUP1 DUP1 CALLDATALOAD PUSH1 0x0 NOT AND SWAP1 PUSH1 0x20 ADD SWAP1 SWAP2 SWAP1 POP POP PUSH2 0x101 JUMP JUMPDEST PUSH1 0x40 MLOAD DUP1 DUP4 DUP2 MSTORE PUSH1 0x20 ADD DUP3 DUP2 MSTORE PUSH1 0x20 ADD SWAP3 POP POP POP PUSH1 0x40 MLOAD DUP1 SWAP2 SUB SWAP1 RETURN JUMPDEST PUSH2 0xB1 PUSH2 0x14D JUMP JUMPDEST PUSH1 0x40 PUSH1 0x40 MLOAD SWAP1 DUP2 ADD PUSH1 0x40 MSTORE DUP1 TIMESTAMP DUP2 MSTORE PUSH1 0x20 ADD NUMBER DUP2 MSTORE POP SWAP1 POP DUP1 PUSH1 0x0 PUSH1 0x0 DUP5 PUSH1 0x0 NOT AND PUSH1 0x0 NOT AND DUP2 MSTORE PUSH1 0x20 ADD SWAP1 DUP2 MSTORE PUSH1 0x20 ADD PUSH1 0x0 SHA3 PUSH1 0x0 DUP3 ADD MLOAD DUP2 PUSH1 0x0 ADD SSTORE PUSH1 0x20 DUP3 ADD MLOAD DUP2 PUSH1 0x1 ADD SSTORE SWAP1 POP POP JUMPDEST POP POP JUMP JUMPDEST PUSH1 0x0 PUSH1 0x0 PUSH1 0x0 PUSH1 0x0 DUP5 PUSH1 0x0 NOT AND PUSH1 0x0 NOT AND DUP2 MSTORE PUSH1 0x20 ADD SWAP1 DUP2 MSTORE PUSH1 0x20 ADD PUSH1 0x0 SHA3 PUSH1 0x0 ADD SLOAD PUSH1 0x0 PUSH1 0x0 DUP6 PUSH1 0x0 NOT AND PUSH1 0x0 NOT AND DUP2 MSTORE PUSH1 0x20 ADD SWAP1 DUP2 MSTORE PUSH1 0x20 ADD PUSH1 0x0 SHA3 PUSH1 0x1 ADD SLOAD SWAP2 POP SWAP2 POP JUMPDEST SWAP2 POP SWAP2 JUMP JUMPDEST PUSH1 0x40 PUSH1 0x40 MLOAD SWAP1 DUP2 ADD PUSH1 0x40 MSTORE DUP1 PUSH1 0x0 DUP2 MSTORE PUSH1 0x20 ADD PUSH1 0x0 DUP2 MSTORE POP SWAP1 JUMP STOP LOG1 PUSH6 0x627A7A723058 SHA3 0x2e GASLIMIT PUSH17 0x6B29DD8D4F7E1EB31F5506968CFC213649 0x4a 0xa9 0xc CALLDATASIZE SWAP6 0xf8 0xc0 CALLCODE 0xd2 CALLER SWAP12 ORIGIN STOP 0x29 "
        },
        "gasEstimates": {
          "creation": {
            "codeDepositCost": "80800",
            "executionCost": "125",
            "totalCost": "80925"
          },
          "external": {
            "addDocHash(bytes32)": "40454",
            "findDocHash(bytes32)": "879"
          }
        },
        "methodIdentifiers": {
          "addDocHash(bytes32)": "133a48f3",
          "findDocHash(bytes32)": "4cf00d3f"
        }
      },
      "userdoc": {
        "methods": {}
      }
    }
  }
}