{
  "_format": "hh-sol-artifact-1",
  "contractName": "Notary",
  "sourceName": "contracts/Notary.sol",
  "abi": [
    {
      "constant": false,
      "inputs": [
        {
          "name": "hash",
          "type": "bytes32"
        }
      ],
      "name": "addDocHash",
      "outputs": [],
      "payable": false,
      "type": "function"
    },
    {
      "constant": true,
      "inputs": [
        {
          "name": "hash",
          "type": "bytes32"
        }
      ],
      "name": "findDocHash",
      "outputs": [
        {
          "name": "",
          "type": "uint256"
        },
        {
          "name": "",
          "type": "uint256"
        }
      ],
      "payable": false,
      "type": "function"
    }
  ],
  "bytecode": "0x6060604052341561000c57fe5b5b6101948061001c6000396000f30060606040526000357c0100000000000000000000000000000000000000000000000000000000900463ffffffff168063133a48f3146100465780634cf00d3f1461006a575bfe5b341561004e57fe5b6100686004808035600019169060200190919050506100a9565b005b341561007257fe5b61008c600480803560001916906020019091905050610101565b604051808381526020018281526020019250505060405180910390f35b6100b161014d565b6040604051908101604052804281526020014381525090508060006000846000191660001916815260200190815260200160002060008201518160000155602082015181600101559050505b5050565b600060006000600084600019166000191681526020019081526020016000206000015460006000856000191660001916815260200190815260200160002060010154915091505b915091565b604060405190810160405280600081526020016000815250905600a165627a7a723058202e45706b29dd8d4f7e1eb31f5506968cfc2136494aa90c3695f8c0f2d2339b320029",
  "linkReferences": {},
  "deployedLinkReferences": {}
}